:100000000C943E000C945B000C945B000C945B0021
:100010000C945B000C945B000C945B000C945B00F4
:100020000C945B000C945B000C945B000C945B00E4
:100030000C945B000C945B000C945B000C945B00D4
:100040000C945B000C945B000C945B000C945B00C4
:100050000C945B000C945B000C945B000C945B00B4
:100060000C945B000C945B000C945B000C945B00A4
:100070000C945B000C945B000C945B0011241FBE7D
:10008000CFEFD8E0DEBFCDBF11E0A0E0B1E0E8EFF8
:10009000F9E002C005900D92A230B107D9F711E046
:1000A000A2E0B1E001C01D92AB31B107E1F70E94BF
:1000B0005D000C94FA040C9400000E9452040E940B
:1000C0006E040E94F800FBCFCF93DF9300D0CDB732
:1000D000DEB79A83898388E60E94390489819A81F0
:1000E0000E94390489E60E94390489819A81892F06
:1000F0000E9439040F900F90DF91CF910895CF9314
:10010000C82F83EF0E9439048C2F0E943904CF91AD
:10011000089584E20E943904809104010E943E0304
:100120000E9425049BB198619BB90895CF93DF93FA
:1001300000D0CDB7DEB79A83898384E60E94390464
:1001400089819A810E94390484E60E943904898158
:100150009A81892F0E9439040F900F90DF91CF91DF
:10016000089580910F01883339F40E941003809123
:100170000A010E94610408958C3AF9F480911001FB
:10018000883AB9F0803E19F0803A89F508C080912C
:1001900012010E949D0380E00E94610408950E9464
:1001A0008D03809112010E94B10380E00E946104DE
:1001B000089580E00E9461040895803539F40E941A
:1001C0000403809109010E94610408958091100147
:1001D000882319F0883059F407C00E94F8028091F2
:1001E00006010E94610408958FEF0E946104089542
:1001F0000F931F93CF93DF93823509F4ADC08335FE
:10020000C0F4833409F46FC0843450F48E3209F49E
:10021000CAC0813409F443C08B3109F006C108C15A
:100220008E3409F4D1C0803539F18C3409F0FDC029
:1002300029C0813669F1823648F48435B9F08435B5
:1002400008F4C6C0893509F0F0C0EAC0853609F463
:10025000A4C0863620F4833609F0E7C039C08D3655
:1002600009F476C0833709F0E0C0C8C00E946E046C
:100270008DE00E946104DCC00E94E8038DE00E94D2
:100280006104D6C00E9434038DE00E946104D0C096
:1002900089E50E94610481E080930201C9C00E9447
:1002A0006E04382F20E030931501209314010E9432
:1002B0006E04209114013091150190E0282B392B08
:1002C00030931501209314018DE00E946104B0C0A9
:1002D0000E946E0490E090931901809318018DE0C4
:1002E0000E946104A5C00E946E04409118015091C3
:1002F0001901382F20E0242B352B3093190120933E
:10030000180180910201882361F08091140190917D
:1003100015018050904C9093170180931601109214
:10032000020180911601909117016091180170915E
:1003300019010E947B03809116019091170102968A
:1003400090931701809316018DE00E94610470C0A4
:100350008DE00E9461046CC08091140190911501A0
:10036000019690640E941C0380931A010E9461040C
:10037000809114019091150190640E941C03809358
:1003800013010E946104809114019091150102965D
:1003900090931501809314014BC00E945B038DE084
:1003A0000E94610445C0CFE0D1E08E010C5F1F4F79
:1003B0000E946E048993C017D107D1F70E94B10043
:1003C0008DE00E94610434C08FEF0E94610430C050
:1003D00081E40E94610486E50E94610482E50E9436
:1003E000610480E20E94610489E40E94610483E563
:1003F0000E94610480E50E9461041AC00E94D90233
:10040000CEE0D1E080910E010E946104FE0131979F
:1004100080810E946104229788810E94610408C043
:100420000E941D020E94610403C08DE00E946104CD
:10043000DF91CF911F910F9108957AB16BB1E9ECE3
:10044000F0E08081877E80838AB1837F8AB98BB117
:100450008C608BB9549A8BB18C608BB98DEA90E02B
:10046000909389008093880080E18093800089E0E8
:10047000809381004A99FECF1092810010928000F3
:100480005C9A8CEC9AE00197F1F700C0000020E044
:1004900030E080E05C98E4E1F1E03197F1F70000B2
:1004A0005C9A49B14295440F407E407850E0022E5C
:1004B00002C0559547950A94E2F7842B2F5F3F4F72
:1004C0002830310539F7E9ECF0E0908198619083AC
:1004D0007AB96BB9089588E38AB98BB180638BB917
:1004E0000895CF92DF92EF92FF920F931F93CF93D5
:1004F000DF93C22FE32EF42E052F162FD72FD82EE1
:10050000C92E80EE0E9439048C2F8E298F29802BD2
:10051000812B8D2B8D298C29F1F08C2F0E94390491
:100520002C2F3E2D4F2D502F612F7D2F8D2D9C2D4B
:1005300008E00E948004C22FE32EF42E052F162F10
:10054000D72FD82EC92E232B242B252B262B272B18
:10055000282B292B11F7DF91CF911F910F91FF903D
:10056000EF90DF90CF900895CF93C82F82EC0E9438
:1005700039048C2F0E9439042C2F30E020953095BF
:10058000277030701216130654F440E051E0550FF6
:100590004F5F842F90E082179307CCF301C051E0A6
:1005A000C73011F05E5F01C052E050930401CF915B
:1005B00008950F931F93CF93DF93C0E0D0E00CE03A
:1005C00011E080E00E947F00CE018054904C0E9498
:1005D00064000E948900F801EC0FFD1F80832196C2
:1005E000C330D10571F7DF91CF911F910F9108951D
:1005F00080E00E947F0080E09FE30E9464000E94F0
:10060000890080930601089580E00E947F0080E4C5
:100610009FE30E9464000E9489008093090108956D
:1006200080E00E947F0080E89FE30E9464000E94B7
:10063000890080930A0108950F931F93CF93DF934E
:100640000F92CDB7DEB78C0180E00E947F00C80119
:100650000E9464000E948900898389810F90DF9144
:10066000CF911F910F9108955D9AE9ECF0E08081A0
:100670008F7E80838081877F80830895882341F0E7
:1006800090E04C99FECF4C9BFECF9F5F9817C9F727
:10069000089582E70E943904809104010E943E037C
:1006A0000E942504809300019091000181E0903820
:1006B00009F080E0089580E090E40E94640080E109
:1006C0000E947F008FEF9FEF0E9496000E944903D7
:1006D0008823E1F7089580E090E40E94640084E1BB
:1006E0000E947F008FEF9FEF0E9496000E944903B7
:1006F0008823E1F70895CF93DF93EB010E94640014
:100700008DE10E947F00CE010E9496000E94490365
:100710008823E1F7DF91CF91089580E49FE30E9461
:10072000640084E10E947F008FEF9FEF0E9496009B
:100730000E9449038823E1F70895CF93C82F80E0F2
:100740009FE30E9464008DE10E947F008C2F90E067
:100750009F6F0E9496000E9449038823E1F7CF9182
:100760000895CF93C82F80E49FE30E9464008DE139
:100770000E947F008C2F90E09F6F0E9496000E9445
:1007800049038823E1F7CF9108958FE80E94390447
:100790008CE80E943E030E9425048093080108957E
:1007A00082E80E943904809104010E943E030E9465
:1007B000250480930B01089580E80E9439048091FC
:1007C00004010E943E030E942504809307010895BE
:1007D0000E946B020E941B045D9888EF90E00197D5
:1007E000F1F700C000005B9AE9ECF0E080818F7EB9
:1007F000808380818860808382E30E943E030E9420
:10080000C50380E00E94B4020E94D0032FEF38E8B5
:1008100048ED5DEC65E47BEA89E892E10E947102B3
:1008200080910701882331F40E94DC038091070145
:100830008823D1F30895549A1092CD0085E08093D7
:10084000CC008FE68093CA000895E9ECF0E0808147
:10085000877F808380818061808385E6E8ECF0E09B
:1008600002C0815019F090819923DCF78091CE006D
:100870000895E9ECF0E090819F7E908390819860EC
:1008800090834C99FECF4C9BFECFE8ECF0E090813A
:1008900095FFFDCFE8ECF0E0908190649083809329
:1008A000CE000895519A1092C50085E08093C4004F
:1008B00086E08093C200E1ECF0E080818861808373
:1008C0000895E0ECF0E0908195FFFDCFE0ECF0E0E2
:1008D0009081906490838093C6000895CF93DF93B6
:1008E0000F92CDB7DEB7E0ECF0E080818823ECF723
:1008F0008091C600898389810F90DF91CF910895FF
:10090000CF92DF92EF92FF920F93CF93DF93CDB709
:10091000DEB760970FB6F894DEBF0FBECDBF0023E1
:1009200009F45AC029873A874B875C876D877E8791
:100930008F87988B80E2801B4D855E856F857889D7
:100940001816B4F01D821E821F821886992787FD13
:100950009095909581959F4F04C076956795579592
:1009600047958A95D2F749835A836B837C832CC041
:100970006A017B01002E04C0F694E794D794C794D3
:100980000A94D2F7CD82DE82EF82F8866A017B017B
:1009900004C0CC0CDD1CEE1CFF1C8A95D2F7D701DD
:1009A000C60149855A856B857C8504C07695679517
:1009B000579547950A95D2F7842B952BA62BB72BE5
:1009C00089839A83AB83BC8329813A814B815C8183
:1009D0006D817E818F81988560960FB6F894DEBF19
:1009E0000FBECDBFDF91CF910F91FF90EF90DF90C1
:0809F000CF900895F894FFCFA9
:0209F80080007D
:00000001FF
